{
  "_format": "hh-sol-artifact-1",
  "contractName": "Homework3",
  "sourceName": "contracts/Homework3.sol",
  "abi": [
    {
      "inputs": [
        {
          "components": [
            {
              "internalType": "uint256",
              "name": "x",
              "type": "uint256"
            },
            {
              "internalType": "uint256",
              "name": "y",
              "type": "uint256"
            }
          ],
          "internalType": "struct Homework3.ECPoint",
          "name": "A",
          "type": "tuple"
        },
        {
          "components": [
            {
              "internalType": "uint256",
              "name": "x",
              "type": "uint256"
            },
            {
              "internalType": "uint256",
              "name": "y",
              "type": "uint256"
            }
          ],
          "internalType": "struct Homework3.ECPoint",
          "name": "B",
          "type": "tuple"
        }
      ],
      "name": "ecadd",
      "outputs": [
        {
          "components": [
            {
              "internalType": "uint256",
              "name": "x",
              "type": "uint256"
            },
            {
              "internalType": "uint256",
              "name": "y",
              "type": "uint256"
            }
          ],
          "internalType": "struct Homework3.ECPoint",
          "name": "",
          "type": "tuple"
        }
      ],
      "stateMutability": "view",
      "type": "function"
    },
    {
      "inputs": [
        {
          "internalType": "uint256",
          "name": "s",
          "type": "uint256"
        },
        {
          "components": [
            {
              "internalType": "uint256",
              "name": "x",
              "type": "uint256"
            },
            {
              "internalType": "uint256",
              "name": "y",
              "type": "uint256"
            }
          ],
          "internalType": "struct Homework3.ECPoint",
          "name": "pt",
          "type": "tuple"
        }
      ],
      "name": "ecmul",
      "outputs": [
        {
          "components": [
            {
              "internalType": "uint256",
              "name": "x",
              "type": "uint256"
            },
            {
              "internalType": "uint256",
              "name": "y",
              "type": "uint256"
            }
          ],
          "internalType": "struct Homework3.ECPoint",
          "name": "",
          "type": "tuple"
        }
      ],
      "stateMutability": "view",
      "type": "function"
    },
    {
      "inputs": [
        {
          "components": [
            {
              "internalType": "uint256",
              "name": "x",
              "type": "uint256"
            },
            {
              "internalType": "uint256",
              "name": "y",
              "type": "uint256"
            }
          ],
          "internalType": "struct Homework3.ECPoint",
          "name": "pt",
          "type": "tuple"
        }
      ],
      "name": "isOnCurve",
      "outputs": [
        {
          "internalType": "bool",
          "name": "",
          "type": "bool"
        }
      ],
      "stateMutability": "view",
      "type": "function"
    },
    {
      "inputs": [
        {
          "internalType": "uint256[]",
          "name": "matrix",
          "type": "uint256[]"
        },
        {
          "internalType": "uint256",
          "name": "n",
          "type": "uint256"
        },
        {
          "components": [
            {
              "internalType": "uint256",
              "name": "x",
              "type": "uint256"
            },
            {
              "internalType": "uint256",
              "name": "y",
              "type": "uint256"
            }
          ],
          "internalType": "struct Homework3.ECPoint[]",
          "name": "s",
          "type": "tuple[]"
        },
        {
          "internalType": "uint256[]",
          "name": "o",
          "type": "uint256[]"
        }
      ],
      "name": "matmul",
      "outputs": [
        {
          "internalType": "bool",
          "name": "verified",
          "type": "bool"
        }
      ],
      "stateMutability": "view",
      "type": "function"
    },
    {
      "inputs": [
        {
          "internalType": "uint256",
          "name": "a",
          "type": "uint256"
        },
        {
          "internalType": "uint256",
          "name": "m",
          "type": "uint256"
        }
      ],
      "name": "modInverse",
      "outputs": [
        {
          "internalType": "uint256",
          "name": "",
          "type": "uint256"
        }
      ],
      "stateMutability": "pure",
      "type": "function"
    },
    {
      "inputs": [
        {
          "components": [
            {
              "internalType": "uint256",
              "name": "x",
              "type": "uint256"
            },
            {
              "internalType": "uint256",
              "name": "y",
              "type": "uint256"
            }
          ],
          "internalType": "struct Homework3.ECPoint",
          "name": "A",
          "type": "tuple"
        },
        {
          "components": [
            {
              "internalType": "uint256",
              "name": "x",
              "type": "uint256"
            },
            {
              "internalType": "uint256",
              "name": "y",
              "type": "uint256"
            }
          ],
          "internalType": "struct Homework3.ECPoint",
          "name": "B",
          "type": "tuple"
        },
        {
          "internalType": "uint256",
          "name": "num",
          "type": "uint256"
        },
        {
          "internalType": "uint256",
          "name": "den",
          "type": "uint256"
        }
      ],
      "name": "rationalAdd",
      "outputs": [
        {
          "internalType": "bool",
          "name": "verified",
          "type": "bool"
        }
      ],
      "stateMutability": "view",
      "type": "function"
    }
  ],
  "bytecode": "0x60806040527f30644e72e131a029b85045b68181585d97816a916871ca8d3c208c16d87cfd476000557f30644e72e131a029b85045b68181585d2833e84879b9709143e1f593f000000160015534801561005857600080fd5b5061193d806100686000396000f3fe608060405234801561001057600080fd5b50600436106100625760003560e01c80633a1dd7ac146100675780633adfed281461009757806365c6fddd146100c757806386b3b7be146100f7578063bf656a2b14610127578063dfe3db5014610157575b600080fd5b610081600480360381019061007c9190610b27565b610187565b60405161008e9190610b6f565b60405180910390f35b6100b160048036038101906100ac9190610bc0565b6101d7565b6040516100be9190610c0f565b60405180910390f35b6100e160048036038101906100dc9190610ce5565b6102ca565b6040516100ee9190610b6f565b60405180910390f35b610111600480360381019061010c9190610e8f565b6106dd565b60405161011e9190610f0d565b60405180910390f35b610141600480360381019061013c9190610f28565b610811565b60405161014e9190610f0d565b60405180910390f35b610171600480360381019061016c9190610f68565b61093c565b60405161017e9190610b6f565b60405180910390f35b60008054600380846000013561019d919061113e565b6101a79190611189565b6101b191906111ec565b600054600284602001356101c5919061113e565b6101cf91906111ec565b149050919050565b600080830361021b576040517f08c379a00000000000000000000000000000000000000000000000000000000081526004016102129061127a565b60405180910390fd5b8183111561023257818361022f91906111ec565b92505b600080600190506000849050600086905060008060005b600084146102a257838561025d919061129a565b9250859150858361026e91906112d5565b87610279919061134d565b9550819650839050838361028d9190611390565b8561029891906113d2565b9350809450610249565b60008712156102ba5786896102b79190611406565b96505b8697505050505050505092915050565b600085866102d89190611390565b888890501461031c576040517f08c379a000000000000000000000000000000000000000000000000000000000815260040161031390611496565b60405180910390fd5b858585905014610361576040517f08c379a000000000000000000000000000000000000000000000000000000000815260040161035890611502565b60405180910390fd5b8583839050146103a6576040517f08c379a000000000000000000000000000000000000000000000000000000000815260040161039d9061156e565b60405180910390fd5b6000808767ffffffffffffffff8111156103c3576103c2610dc4565b5b6040519080825280602002602001820160405280156103fc57816020015b6103e9610acb565b8152602001906001900390816103e15790505b50905060008867ffffffffffffffff81111561041b5761041a610dc4565b5b60405190808252806020026020018201604052801561045457816020015b610441610acb565b8152602001906001900390816104395790505b50905060006040518060400160405280600181526020016002815250905060005b8a8110156106c8578a816104899190611390565b945060005b8b8110156106b4576104ec8e8e83896104a79190611189565b8181106104b7576104b661158e565b5b905060200201358c8c848181106104d1576104d061158e565b5b9050604002018036038101906104e791906115bd565b610811565b8482815181106104ff576104fe61158e565b5b602002602001018190525060008103610550578381815181106105255761052461158e565b5b60200260200101518583815181106105405761053f61158e565b5b60200260200101819052506105ad565b61058e8583815181106105665761056561158e565b5b60200260200101518583815181106105815761058061158e565b5b60200260200101516106dd565b8583815181106105a1576105a061158e565b5b60200260200101819052505b60018c6105ba91906113d2565b81036106a15760006105e58a8a858181106105d8576105d761158e565b5b9050602002013585610811565b90506106378684815181106105fd576105fc61158e565b5b60200260200101516000015182600001518886815181106106215761062061158e565b5b60200260200101516020015184602001516109e3565b806000015186848151811061064f5761064e61158e565b5b60200260200101516000015114158061068a5750806020015186848151811061067b5761067a61158e565b5b60200260200101516020015114155b1561069f5760009750505050505050506106d2565b505b80806106ac906115ea565b91505061048e565b5080806106c0906115ea565b915050610475565b5060019450505050505b979650505050505050565b6106e5610acb565b600060069050600084600001518560200151856000015186602001516040516020016107149493929190611653565b60405160208183030381529060405290506000808373ffffffffffffffffffffffffffffffffffffffff1660968460405161074f9190611712565b6000604051808303818686fa925050503d806000811461078b576040519150601f19603f3d011682016040523d82523d6000602084013e610790565b606091505b5091509150816107d5576040517f08c379a00000000000000000000000000000000000000000000000000000000081526004016107cc90611775565b60405180910390fd5b6107dd610acb565b818060200190518101906107f191906117aa565b826000018360200182815250828152505050809550505050505092915050565b610819610acb565b6000600790506000836000015184602001518660405160200161083e939291906117ea565b60405160208183030381529060405290506000808373ffffffffffffffffffffffffffffffffffffffff166117708460405161087a9190611712565b6000604051808303818686fa925050503d80600081146108b6576040519150601f19603f3d011682016040523d82523d6000602084013e6108bb565b606091505b509150915081610900576040517f08c379a00000000000000000000000000000000000000000000000000000000081526004016108f790611873565b60405180910390fd5b610908610acb565b8180602001905181019061091c91906117aa565b826000018360200182815250828152505050809550505050505092915050565b6000806109698680360381019061095391906115bd565b8680360381019061096491906115bd565b6106dd565b905060006001548061097e5761097d6111bd565b5b61098a856001546101d7565b8609905060006040518060400160405280600181526020016002815250905060006109b58383610811565b9050806000015184600001511480156109d5575080602001518460200151145b945050505050949350505050565b610a7f848484846040516024016109fd9493929190611893565b6040516020818303038152906040527f193fb800000000000000000000000000000000000000000000000000000000007bffffffffffffffffffffffffffffffffffffffffffffffffffffffff19166020820180517bffffffffffffffffffffffffffffffffffffffffffffffffffffffff8381831617835250505050610a85565b50505050565b610a9c81610a94610a9f610ac0565b63ffffffff16565b50565b60006a636f6e736f6c652e6c6f679050600080835160208501845afa505050565b610ae5819050919050565b604051806040016040528060008152602001600081525090565b610aed6118d8565b565b6000604051905090565b600080fd5b600080fd5b600080fd5b600060408284031215610b1e57610b1d610b03565b5b81905092915050565b600060408284031215610b3d57610b3c610af9565b5b6000610b4b84828501610b08565b91505092915050565b60008115159050919050565b610b6981610b54565b82525050565b6000602082019050610b846000830184610b60565b92915050565b6000819050919050565b610b9d81610b8a565b8114610ba857600080fd5b50565b600081359050610bba81610b94565b92915050565b60008060408385031215610bd757610bd6610af9565b5b6000610be585828601610bab565b9250506020610bf685828601610bab565b9150509250929050565b610c0981610b8a565b82525050565b6000602082019050610c246000830184610c00565b92915050565b600080fd5b600080fd5b600080fd5b60008083601f840112610c4f57610c4e610c2a565b5b8235905067ffffffffffffffff811115610c6c57610c6b610c2f565b5b602083019150836020820283011115610c8857610c87610c34565b5b9250929050565b60008083601f840112610ca557610ca4610c2a565b5b8235905067ffffffffffffffff811115610cc257610cc1610c2f565b5b602083019150836040820283011115610cde57610cdd610c34565b5b9250929050565b60008060008060008060006080888a031215610d0457610d03610af9565b5b600088013567ffffffffffffffff811115610d2257610d21610afe565b5b610d2e8a828b01610c39565b97509750506020610d418a828b01610bab565b955050604088013567ffffffffffffffff811115610d6257610d61610afe565b5b610d6e8a828b01610c8f565b9450945050606088013567ffffffffffffffff811115610d9157610d90610afe565b5b610d9d8a828b01610c39565b925092505092959891949750929550565b600080fd5b6000601f19601f8301169050919050565b7f4e487b7100000000000000000000000000000000000000000000000000000000600052604160045260246000fd5b610dfc82610db3565b810181811067ffffffffffffffff82111715610e1b57610e1a610dc4565b5b80604052505050565b6000610e2e610aef565b9050610e3a8282610df3565b919050565b600060408284031215610e5557610e54610dae565b5b610e5f6040610e24565b90506000610e6f84828501610bab565b6000830152506020610e8384828501610bab565b60208301525092915050565b60008060808385031215610ea657610ea5610af9565b5b6000610eb485828601610e3f565b9250506040610ec585828601610e3f565b9150509250929050565b610ed881610b8a565b82525050565b604082016000820151610ef46000850182610ecf565b506020820151610f076020850182610ecf565b50505050565b6000604082019050610f226000830184610ede565b92915050565b60008060608385031215610f3f57610f3e610af9565b5b6000610f4d85828601610bab565b9250506020610f5e85828601610e3f565b9150509250929050565b60008060008060c08587031215610f8257610f81610af9565b5b6000610f9087828801610b08565b9450506040610fa187828801610b08565b9350506080610fb287828801610bab565b92505060a0610fc387828801610bab565b91505092959194509250565b7f4e487b7100000000000000000000000000000000000000000000000000000000600052601160045260246000fd5b60008160011c9050919050565b6000808291508390505b60018511156110555780860481111561103157611030610fcf565b5b60018516156110405780820291505b808102905061104e85610ffe565b9450611015565b94509492505050565b60008261106e576001905061112a565b8161107c576000905061112a565b8160018114611092576002811461109c576110cb565b600191505061112a565b60ff8411156110ae576110ad610fcf565b5b8360020a9150848211156110c5576110c4610fcf565b5b5061112a565b5060208310610133831016604e8410600b84101617156111005782820a9050838111156110fb576110fa610fcf565b5b61112a565b61110d848484600161100b565b9250905081840481111561112457611123610fcf565b5b81810290505b9392505050565b600060ff82169050919050565b600061114982610b8a565b915061115483611131565b92506111817fffffffffffffffffffffffffffffffffffffffffffffffffffffffffffffffff848461105e565b905092915050565b600061119482610b8a565b915061119f83610b8a565b92508282019050808211156111b7576111b6610fcf565b5b92915050565b7f4e487b7100000000000000000000000000000000000000000000000000000000600052601260045260246000fd5b60006111f782610b8a565b915061120283610b8a565b925082611212576112116111bd565b5b828206905092915050565b600082825260208201905092915050565b7f4e6f20696e76657273652065786973747320666f72207a65726f2e0000000000600082015250565b6000611264601b8361121d565b915061126f8261122e565b602082019050919050565b6000602082019050818103600083015261129381611257565b9050919050565b60006112a582610b8a565b91506112b083610b8a565b9250826112c0576112bf6111bd565b5b828204905092915050565b6000819050919050565b60006112e0826112cb565b91506112eb836112cb565b92508282026112f9816112cb565b91507f8000000000000000000000000000000000000000000000000000000000000000841460008412161561133157611330610fcf565b5b828205841483151761134657611345610fcf565b5b5092915050565b6000611358826112cb565b9150611363836112cb565b925082820390508181126000841216828213600085121516171561138a57611389610fcf565b5b92915050565b600061139b82610b8a565b91506113a683610b8a565b92508282026113b481610b8a565b915082820484148315176113cb576113ca610fcf565b5b5092915050565b60006113dd82610b8a565b91506113e883610b8a565b9250828203905081811115611400576113ff610fcf565b5b92915050565b6000611411826112cb565b915061141c836112cb565b92508282019050828112156000831216838212600084121516171561144457611443610fcf565b5b92915050565b7f6d617472697820686173207468652077726f6e672064696d656e73696f6e0000600082015250565b6000611480601e8361121d565b915061148b8261144a565b602082019050919050565b600060208201905081810360008301526114af81611473565b9050919050565b7f7320686173207468652077726f6e672064696d656e73696f6e00000000000000600082015250565b60006114ec60198361121d565b91506114f7826114b6565b602082019050919050565b6000602082019050818103600083015261151b816114df565b9050919050565b7f6f20686173207468652077726f6e672064696d656e73696f6e00000000000000600082015250565b600061155860198361121d565b915061156382611522565b602082019050919050565b600060208201905081810360008301526115878161154b565b9050919050565b7f4e487b7100000000000000000000000000000000000000000000000000000000600052603260045260246000fd5b6000604082840312156115d3576115d2610af9565b5b60006115e184828501610e3f565b91505092915050565b60006115f582610b8a565b91507fffffffffffffffffffffffffffffffffffffffffffffffffffffffffffffffff820361162757611626610fcf565b5b600182019050919050565b6000819050919050565b61164d61164882610b8a565b611632565b82525050565b600061165f828761163c565b60208201915061166f828661163c565b60208201915061167f828561163c565b60208201915061168f828461163c565b60208201915081905095945050505050565b600081519050919050565b600081905092915050565b60005b838110156116d55780820151818401526020810190506116ba565b60008484015250505050565b60006116ec826116a1565b6116f681856116ac565b93506117068185602086016116b7565b80840191505092915050565b600061171e82846116e1565b915081905092915050565b7f4543206164646974696f6e206661696c65640000000000000000000000000000600082015250565b600061175f60128361121d565b915061176a82611729565b602082019050919050565b6000602082019050818103600083015261178e81611752565b9050919050565b6000815190506117a481610b94565b92915050565b600080604083850312156117c1576117c0610af9565b5b60006117cf85828601611795565b92505060206117e085828601611795565b9150509250929050565b60006117f6828661163c565b602082019150611806828561163c565b602082019150611816828461163c565b602082019150819050949350505050565b7f4543206d756c7469706c69636174696f6e206661696c65640000000000000000600082015250565b600061185d60188361121d565b915061186882611827565b602082019050919050565b6000602082019050818103600083015261188c81611850565b9050919050565b60006080820190506118a86000830187610c00565b6118b56020830186610c00565b6118c26040830185610c00565b6118cf6060830184610c00565b95945050505050565b7f4e487b7100000000000000000000000000000000000000000000000000000000600052605160045260246000fdfea26469706673582212203841ba44fb2cf27767f0936c8d4962798b6d534057bf8da80a0691eb6a05c4de64736f6c63430008130033",
  "linkReferences": {},
  "deployedLinkReferences": {}
}